:100000000C942A000C9434000C9434000C943400AA
:100010000C9434000C9434000C9434000C94340090
:100020000C9434000C9434000C9434000C94340080
:100030000C9434000C9434000C9434000C94340070
:100040000C9434000C9434000C9434000C94340060
:100050000C94340011241FBECFE5D8E0DEBFCDBF25
:100060000E9436000C9455000C9400008FE08ABB6F
:1000700061E048EC50E06BBB84EC99E0FA01319709
:10008000F1F70197D9F720E030E08BB3880F8BBBF5
:1000900084EC99E0FA013197F1F70197D9F72F5FD6
:0E00A0003F4F2430310589F7E6CFF894FFCFAB
:00000001FF
